{
  "contractName": "Lunch",
  "abi": [
    {
      "constant": false,
      "inputs": [
        {
          "name": "people",
          "type": "address"
        }
      ],
      "name": "checkAttendance",
      "outputs": [
        {
          "name": "",
          "type": "bool"
        }
      ],
      "payable": false,
      "stateMutability": "nonpayable",
      "type": "function"
    },
    {
      "constant": true,
      "inputs": [],
      "name": "totalCost",
      "outputs": [
        {
          "name": "",
          "type": "uint256"
        }
      ],
      "payable": false,
      "stateMutability": "view",
      "type": "function"
    },
    {
      "constant": false,
      "inputs": [],
      "name": "kill",
      "outputs": [],
      "payable": false,
      "stateMutability": "nonpayable",
      "type": "function"
    },
    {
      "constant": true,
      "inputs": [
        {
          "name": "",
          "type": "address"
        }
      ],
      "name": "attendeeJoined",
      "outputs": [
        {
          "name": "",
          "type": "bool"
        }
      ],
      "payable": false,
      "stateMutability": "view",
      "type": "function"
    },
    {
      "constant": true,
      "inputs": [],
      "name": "organizer",
      "outputs": [
        {
          "name": "",
          "type": "address"
        }
      ],
      "payable": false,
      "stateMutability": "view",
      "type": "function"
    },
    {
      "constant": true,
      "inputs": [],
      "name": "numOfAttendees",
      "outputs": [
        {
          "name": "",
          "type": "uint256"
        }
      ],
      "payable": false,
      "stateMutability": "view",
      "type": "function"
    },
    {
      "constant": true,
      "inputs": [],
      "name": "limit",
      "outputs": [
        {
          "name": "",
          "type": "uint256"
        }
      ],
      "payable": false,
      "stateMutability": "view",
      "type": "function"
    },
    {
      "constant": false,
      "inputs": [
        {
          "name": "newTotalCost",
          "type": "uint256"
        }
      ],
      "name": "changeTotalCost",
      "outputs": [],
      "payable": false,
      "stateMutability": "nonpayable",
      "type": "function"
    },
    {
      "constant": false,
      "inputs": [],
      "name": "attend",
      "outputs": [
        {
          "name": "",
          "type": "bool"
        }
      ],
      "payable": true,
      "stateMutability": "payable",
      "type": "function"
    },
    {
      "constant": false,
      "inputs": [],
      "name": "splitCost",
      "outputs": [
        {
          "name": "",
          "type": "uint256"
        }
      ],
      "payable": false,
      "stateMutability": "nonpayable",
      "type": "function"
    },
    {
      "constant": false,
      "inputs": [],
      "name": "getAvailable",
      "outputs": [
        {
          "name": "",
          "type": "uint256"
        }
      ],
      "payable": false,
      "stateMutability": "nonpayable",
      "type": "function"
    },
    {
      "inputs": [],
      "payable": false,
      "stateMutability": "nonpayable",
      "type": "constructor"
    }
  ],
  "bytecode": "0x6060604052341561000f57600080fd5b336000806101000a81548173ffffffffffffffffffffffffffffffffffffffff021916908373ffffffffffffffffffffffffffffffffffffffff160217905550600a60038190555060006002819055506064600481905550610550806100766000396000f3006060604052600436106100af576000357c0100000000000000000000000000000000000000000000000000000000900463ffffffff16806307df1e52146100b45780633c5e6c971461010557806341c0e1b51461012e5780635e315d3b146101435780636120326514610194578063837e83d7146101e9578063a4d66daf14610212578063bc1af7401461023b578063d72c55771461025e578063d929683f14610280578063f9cc0605146102a9575b600080fd5b34156100bf57600080fd5b6100eb600480803573ffffffffffffffffffffffffffffffffffffffff169060200190919050506102d2565b604051808215151515815260200191505060405180910390f35b341561011057600080fd5b610118610328565b6040518082815260200191505060405180910390f35b341561013957600080fd5b61014161032e565b005b341561014e57600080fd5b61017a600480803573ffffffffffffffffffffffffffffffffffffffff169060200190919050506103bf565b604051808215151515815260200191505060405180910390f35b341561019f57600080fd5b6101a76103df565b604051808273ffffffffffffffffffffffffffffffffffffffff1673ffffffffffffffffffffffffffffffffffffffff16815260200191505060405180910390f35b34156101f457600080fd5b6101fc610404565b6040518082815260200191505060405180910390f35b341561021d57600080fd5b61022561040a565b6040518082815260200191505060405180910390f35b341561024657600080fd5b61025c6004808035906020019091905050610410565b005b610266610476565b604051808215151515815260200191505060405180910390f35b341561028b57600080fd5b6102936104ff565b6040518082815260200191505060405180910390f35b34156102b457600080fd5b6102bc610516565b6040518082815260200191505060405180910390f35b6000600160008373ffffffffffffffffffffffffffffffffffffffff1673ffffffffffffffffffffffffffffffffffffffff16815260200190815260200160002060009054906101000a900460ff169050919050565b60045481565b6000809054906101000a900473ffffffffffffffffffffffffffffffffffffffff1673ffffffffffffffffffffffffffffffffffffffff163373ffffffffffffffffffffffffffffffffffffffff1614156103bd576000809054906101000a900473ffffffffffffffffffffffffffffffffffffffff1673ffffffffffffffffffffffffffffffffffffffff16ff5b565b60016020528060005260406000206000915054906101000a900460ff1681565b6000809054906101000a900473ffffffffffffffffffffffffffffffffffffffff1681565b60025481565b60035481565b6000809054906101000a900473ffffffffffffffffffffffffffffffffffffffff1673ffffffffffffffffffffffffffffffffffffffff163373ffffffffffffffffffffffffffffffffffffffff1614151561046b57610473565b806004819055505b50565b600060035460025410151561048e57600090506104fc565b60018060003373ffffffffffffffffffffffffffffffffffffffff1673ffffffffffffffffffffffffffffffffffffffff16815260200190815260200160002060006101000a81548160ff021916908315150217905550600260008154809291906001019190505550600190505b90565b600060025460045481151561051057fe5b04905090565b6000600254600354039050905600a165627a7a72305820d40ea8e2ccd525571e82e079b291901cfd8d14474ebb99301c772a34ea2f1b550029",
  "source": "/**\r\n * Lunch is a contract that allows for up to 10 people pay for lunch together\r\n */\r\ncontract Lunch {\r\n\t\r\n\taddress public organizer; // address represents an account \r\n\tmapping (address => bool) public attendeeJoined; //hashmap of addresses to booleans\r\n\tuint public numOfAttendees; // an uint is an unsigned integer which saves space\r\n\tuint public limit;\r\n\tuint public totalCost;\r\n\r\n\t//Contract Constructor\r\n\tfunction Lunch ()  {\r\n\t\torganizer = msg.sender;\r\n\t\tlimit = 10;\r\n\t\tnumOfAttendees = 0;\r\n\t\ttotalCost = 100;\r\n\t}\r\n\r\n\r\n\t//public method that changes the total cost of the lunch\r\n\t//only available to the organizer of the contract\r\n\tfunction changeTotalCost (uint newTotalCost) public {\r\n\t\tif(msg.sender != organizer){\r\n\t\t\treturn;\r\n\t\t}\r\n\t\ttotalCost = newTotalCost;\r\n\t}\r\n\r\n\t/*\r\n\tpublic method that lets people to attend the lunch \r\n\tas long as it is under the limit of the possible.\r\n\t\r\n\tpayable indicates that real money can be transferred \r\n\tusing ether, however this method does not require it here \r\n\t*/\r\n\tfunction attend () public payable returns(bool) {\r\n\t\tif (numOfAttendees >= limit){\r\n\t\t\treturn false; \r\n\t\t}\r\n\t\tattendeeJoined[msg.sender] = true;\r\n\t\tnumOfAttendees++;\r\n\t\treturn true;\r\n\t\t\r\n\t}\r\n\r\n\t//public method that returns the number of available spots left at lunch\r\n\tfunction getAvailable () public returns(uint) {\r\n\t\treturn limit - numOfAttendees;\r\n\r\n\t}\r\n\r\n\t//checks if a person is in attendace of the lunch\r\n\tfunction checkAttendance (address people) public returns(bool) {\r\n\t\treturn attendeeJoined[people];\r\n\t}\r\n\r\n\t// returns the amount that each person would have to pay if the bill was split evenly\r\n\tfunction splitCost () public returns(uint) {\r\n\t\treturn totalCost / numOfAttendees;\r\n\t}\r\n\r\n\t//kill method recovers funds that are involved in the contract and returns\r\n\t//them to their original owner\r\n\tfunction kill (){\r\n\t\tif(msg.sender == organizer){\r\n\t\t\tsuicide(organizer);\r\n\t\t}\r\n\t}\r\n\t\r\n\t\r\n\t\r\n\t\r\n\t\r\n\t\r\n\r\n}\r\n",
  "sourcePath": "C:\\Users\\12014\\Desktop\\Ethereum-Development\\lunch-contract\\contracts\\Lunch.sol",
  "compiler": {
    "name": "solc",
    "version": "0.4.18+commit.9cf6e910.Emscripten.clang"
  },
  "schemaVersion": "1.0.1",
  "updatedAt": "2018-01-16T04:35:52.257Z"
}